:020000024000BC
:100000008DC10000ACC10000AAC10000A8C1000061
:10001000A6C10000A4C10000A2C10000A0C1000050
:100020001C94D20C9CC100009AC1000098C1000031
:1000300096C1000094C1000092C1000090C1000070
:100040008EC100008CC100008AC1000088C1000080
:1000500086C1000084C1000082C1000080C1000090
:100060007EC100007CC100007AC1000078C10000A0
:1000700076C1000074C1000072C1000070C10000B0
:100080006EC100006CC100006AC1000068C10000C0
:1000900066C1000064C1000062C1000060C10000D0
:1000A0005EC100005CC100005AC1000058C10000E0
:1000B00056C1000054C1000052C1000050C10000F0
:1000C0004EC100004CC100004AC1000048C1000000
:1000D00046C1000044C1000042C1000040C1000010
:1000E0003EC100003CC100003AC1000038C1000020
:1000F00036C1000034C1000032C1000030C1000030
:100100002EC100002CC100002AC1000028C100003F
:1001100026C1000024C1000022C1000020C100004F
:100120001EC100001CC100001AC1000018C100005F
:1001300016C1000014C1000012C1000010C100006F
:100140000EC100000CC100000AC1000008C100007F
:1001500006C1000004C1000002C1000000C100008F
:10016000FEC00000FCC00000FAC00000F8C00000A3
:10017000F6C00000F4C00000F2C00000F0C00000B3
:10018000EEC00000ECC00000EAC00000E8C00000C3
:10019000E6C00000E4C00000E2C00000E0C00000D3
:1001A000DEC00000DCC00000DAC00000D8C00000E3
:1001B000D6C00000D4C00000D2C00000D0C00000F3
:1001C000CEC00000CCC00000CAC00000C8C0000003
:1001D000C6C00000C4C00000C2C00000C0C0000013
:1001E000BEC00000BCC00000BAC00000B8C0000023
:1001F000B6C000001C94E40A1C948A0B3E51494589
:100200003E00427F400062514949462241494936F9
:100210001814127F1027454545393C4A4949300199
:10022000710905033649494936064949291E000026
:1002300060000000AC6C000008142241001414148B
:10024000141441221408000201510906324979416F
:100250003E7E0909097E7F494949363E4141412296
:100260007F4141221C7F494949417F090909013EDB
:100270004149497A7F0808087F00417F41002040BA
:10028000413F017F081422417F404040407F020CE3
:10029000027F7F0408107F3E4141413E7F090909EA
:1002A000063E4151215E7F091929462649494932B6
:1002B00001017F01013F4040403F1F2040201F3F80
:1002C0004038403F63140814633C3D20505245536E
:1002D000532020425554544F4E53203D3E00544F1E
:1002E00020455849540056455253494F4E20313A03
:1002F0003100424F4F544C4F41444552004F5343FD
:10030000494C4C4F53434F504520574154434800AC
:100310004741424F54524F4E4943530011241FBE90
:10032000CFEFCDBFDFE5DEBF02E00CBF10E2A0E003
:10033000B0E2E4EFFCE104E00BBF02C007900D92D5
:10034000AA3FB107D9F722E3AAEFB0E201C01D929C
:10035000A43DB207E1F71E94790D1C94560E50CEC1
:10036000CF93DF931F92CDB7DEB78FB78983F89411
:1003700089810F90DF91CF910895F2DFA0E5B0E081
:1003800016969C911697997F16969C931697E0E681
:10039000F0E090E895839BEB968316969C911697D8
:1003A000946016969C939081916090838FBF08957E
:1003B000CF93DF9300D01F92CDB7DEB78FEF80933E
:1003C000700080937100809372008093730080931B
:1003D0007400809375008093760064E081E490E07F
:1003E0007ED56CE170E082E031D78C836DE170E006
:1003F00082E02CD78B838B819C81019621F480E451
:1004000093E28B839C838B819C8189839A838093E5
:1004100062008A8180936300A3DF90915000926014
:10042000909350008FBF8091510081FFFCCFA5DFDA
:1004300061E080E490E053D593DF909150009E7F7F
:10044000909350008FBF2496CDBFDEBFDF91CF9138
:100450000895CF93DF93C82FD62F82DFEC2FF0E0E3
:10046000E059FF4FD0959081D923D0838FBFDF9182
:10047000CF910895CF93863011F0C0E001C0C8E15C
:100480008091510081FD0CC06BDF90915000926013
:10049000909350008FBF8091510081FFFCCF6DDFA2
:1004A0006C2F636084E490E01AD560E480E0CF9123
:1004B000D0CF0F93FB019A01BC0180E090E001E0F6
:1004C000AF0124D60F910895FC019A0180E090E0DD
:1004D000AF01F7C5A5C59C01CB01B9011BC566508D
:1004E0007F4D1C944D0E63507F4D1C944D0EA0E922
:1004F000B0E08C91EDEFF0E2808311968C91119732
:10050000818312968C911297828313968C918383A8
:1005100008958091D0018695817091E08927089592
:100520008091CF0187FDFCCF40E260E070E0CB011D
:100530001E94580EC3D581E00895F8948AEA95E593
:100540008093D4329093D53260917900616089E7CD
:1005500090E0C5D4FFCF0895089580E00895E2E5C6
:10056000F9E2108282E08483E0ECF9E216861786D5
:10057000148615860895E2E5F9E283E0808382E03F
:10058000848380E0089580910B214091092150914E
:100590000A21682F6F7370E06E5E7E4DE091072137
:1005A000F091082190910C2119951092CE2910926A
:1005B000CF2981E0089510920F21D1DF98DFA9DFC4
:1005C00080930E2181E008954091092150910A21E4
:1005D00060910B2170910C21E0910521F091062191
:1005E00082E191E219956091092170910A2182E1DD
:1005F00091E2E3D781E0089580910B2190910C2145
:10060000E2E1F1E29083818362E070E0CF01D5D72F
:1006100081E00895CF939091C029892F8076803210
:1006200009F03CC08091C12997FF12C0823041F08F
:10063000833071F566E070E082E599E2BED726C0AE
:10064000E0911021F0911121309711F1CF9119947F
:10065000813021F08430E1F482DF18C0C0910F2195
:10066000CC2349F080E077DF8DE992E08093CC29BC
:100670009093CD2914C060E470E082E199E29DD7A7
:1006800081E993E08093CE299093CF29C1E007C000
:100690008FE0809352298AE080935629C0E08C2F06
:1006A000CF910895CF92DF92EF92FF92209114297B
:1006B00030E0322F222780911529280F311D2093F9
:1006C0000B2130930C218091162990E0982F8827D8
:1006D00040911729840F911D6C01E12CF12C409160
:1006E0000121509102216091032170910421C416CF
:1006F000D506E606F70640F088E0809352298AE0A6
:100700008093562980E008C00196821B930B80934A
:10071000092190930A2181E0FF90EF90DF90CF9024
:1007200008950F931F93CF931ADF10921021109208
:10073000112181E010DF80911229909113299827CF
:1007400089279827811521E0920759F580910E217C
:10075000882349F080910D21882329F083E080933C
:10076000522982E00AC08091072190910821892BAB
:1007700041F483E0809352298AE080935629C0E0B7
:10078000D6C090DFC82F8823D1F360E078E082E103
:1007900091E213D783EC92E08093CE299093CF29F6
:1007A000C6C0811523E09207E9F47CDFC82F8823B7
:1007B00031F38091052190910621892BD1F280910E
:1007C0000E21882361F080910D21882341F02BEBCD
:1007D00032E02093102130931121C82FA8C084EE5D
:1007E00092E047C0813023E0920709F060C05ADFF1
:1007F000C82F882309F4C3CF809105219091062149
:10080000892B09F4B6CF8091092190910A21892B77
:10081000C9F580E098EF8093092190930A2100E0C8
:1008200018E060910B2170910C21E0910521F0916D
:100830000621A80182E191E2199580910B21909106
:100840000C210E5E1E4DE2E1F1E2825191429C01CB
:100850002E0F3F1FE017F10789F041914F3FB9F389
:1008600020930B2130930C2185E0809352298CEF4B
:1008700092E0809310219093112159C020930B2175
:1008800030930C218091092190910A21009709F45D
:100890004EC08C01813028E0920710F000E018E093
:1008A000801B910B8093092190930A21BACF811567
:1008B00024E0920741F434DEC82F882309F45FCF87
:1008C00010920E2134C0833024E0920721F481E09D
:1008D00080930F212BC08330964009F050CF809138
:1008E0001429811123C0E0911529E13110F088E02D
:1008F00041CF8EEF8E0F843020F081E080930D2168
:1009000002C010920D21F0E0EE0FFF1FE055FF4DE9
:100910000190F081E02D88E0A1E0B1E201900D921C
:100920008A95E1F710920B2110920C21C1E08C2FD7
:10093000CF911F910F9108958091C2298F7737C66B
:1009400090915C29911102C080E00895E0915A29AC
:10095000F0915B290190F081E02D94818917A0F737
:10096000E0935829F0935929228133812E0F3F1F9C
:10097000E217F30798F49181943061F4928189131E
:1009800009C09381691306C0E0935829F09359294F
:1009900081E008959081E90FF11DEACFE093582995
:1009A000F0935929D1CFCF93DF93C82F60E0C8DFF0
:1009B000D82F882399F0E0915A29F0915B299281F0
:1009C0008381E92FF82FEC0FF11DEC0FF11D019041
:1009D000F081E02D0280F381E02D19958D2FDF91BC
:1009E000CF910895E0915A29F0915B29228193815A
:1009F000E22FF92FE80FF11DE80FF11D0190F081B2
:100A0000E02D0190F081E02D19947CC5CF93809169
:100A10005C29882311F0C0E00AC010925C2981E0B3
:100A200090E08093602990936129CF910895E0919F
:100A30005A29F0915B290190F081E02D8481C8173B
:100A400060F78C2FB0DFCF5FF2CFCF9380915C291E
:100A50008823F1F0C0E0E0915A29F0915B29A08150
:100A6000B18114968C91C81798F492818381E92FF3
:100A7000F82FEC0FF11DEC0FF11D0190F081E02D2E
:100A80000084F185E02D309709F01995CF5FE3CF11
:100A9000CF9108950F931F93CF93DF9382E085BB8F
:100AA0001092CA291092CB291092CC291092CD29EC
:100AB0001092CE291092CF298091C02987FF07C0BC
:100AC0002091C6293091C729232B09F402C2982FFF
:100AD000907609F08BC187FFE5C02091C62930913F
:100AE000C7292115310509F481C18F7109F09FC013
:100AF0008091C129863071F0883009F48EC081114F
:100B000075C12230310509F071C162E070E080E604
:100B100099E28BC08091C2299091C329292F332754
:100B200022303105A1F060F42130310509F05EC1B9
:100B300080910A2090910B20DC016C9170E05BC0E9
:100B40002330310589F12F30310509F14FC1E09192
:100B50000A20F0910B202189821708F047C19927BC
:100B6000880F991F880F991FE0910C20F0910D209C
:100B7000E80FF91F80819181FC01628173811DD58D
:100B8000E091C829F091C92982E0818335C0809124
:100B90000E2090910F20009709F428C1DC011296D5
:100BA0006D917C91139727C099278130910569F049
:100BB00038F0029709F01AC161E28EE790E208C0AE
:100BC00064E070E08CEA90E216C06BE080EA90E2AC
:100BD000282FACE3B0E2FC01819190E08D939D93CE
:100BE0008E2F821B8617C0F3660F6E5F60933A20CC
:100BF00070E08AE390E2E1D48091C6299091C72900
:100C00002091CA293091CB298217930708F02CC173
:100C10008093CA299093CB2927C12130310509F04F
:100C2000E5C061E070E08CE599E2C7D41DC1813078
:100C300009F0DCC08091C1298A3009F0D7C0213089
:100C4000310509F0D3C080915C29882309F4CEC016
:100C5000C091C429D091C52900915A2910915B29CE
:100C6000D801ED91FC918481C81708F0BFC060E005
:100C70008C2F66DE882309F4B9C0DD27CC0FDD1F79
:100C8000F80182819381C80FD91FE881F98106801C
:100C9000F781E02D199580935E2961E070E08EE583
:100CA00099E2C3CF8F7109F080C08091C129833050
:100CB00009F49CC018F48130A1F098C0853019F077
:100CC000893039F193C08091C6299091C729892B29
:100CD00009F08CC08CE994E08093CC299093CD29C5
:100CE000C3C08091C6299091C729892B09F07EC085
:100CF0008091C2299091C329019709F077C0809112
:100D00006029909161298D7F80936029909361295A
:100D1000ABC08091C6299091C729892B09F066C084
:100D200049D4882309F462C02091C2293091C32993
:100D30003327E0910A20F0910B20818990E08217FF
:100D4000930708F453C062DE8091C2299091C329B1
:100D500080935C29882309F487C099278150904C9F
:100D6000880F991F880F991F20910C2030910D201A
:100D7000820F931F80935A2990935B29C0E0E091E2
:100D80005A29F0915B290190F081E02D8481C817E8
:100D900008F06AC060E08C2FD3DD882339F18C2FF6
:100DA00021DE882319F1CF5FEACF8130F9F48091F9
:100DB000C1298B30D9F48091C6299091C729892BFC
:100DC000A9F480915C29882389F0C091C429D0912D
:100DD000C2298C2FE8DD882349F06D2F8C2FB0DDE0
:100DE000882321F08C2FFEDD81113EC08091C02927
:100DF0008F718130D9F580915C29882309F469C00D
:100E0000C091C429D091C52900915A2910915B291C
:100E1000D801ED91FC918481C81708F05AC060E0B8
:100E20008C2F8EDD882311F1FE01FF27EE0FFF1FAF
:100E3000D80112968D919C911397E80FF91F0081AC
:100E40001181D8011696ED91FC9117971995682F8D
:100E50008C2F76DD882351F0D8011496ED91FC910A
:100E600015971995882311F081E034C08091C0292D
:100E70008F71823071F580915C29882351F1C0E037
:100E8000E0915A29F0915B29A081B18114968C914F
:100E9000C817F8F492818381E92FF82FEC0FF11D28
:100EA000EC0FF11D00811181D8011696ED91FC9196
:100EB00017971995682F8C2F43DD882351F0D8019F
:100EC0001496ED91FC91159719958111CDCFCF5FB7
:100ED000D7CF80E0DF91CF911F910F9108951BBE76
:100EE000FC0128ED24BF608308958091CF0187FD28
:100EF000FCCF08951F93CF93DF93C0ECD1E01A8508
:100F00008A8761E08BEC91E0EADF1A87DF91CF916D
:100F10001F910895CF92DF92EF92FF920F931F934C
:100F2000CF93DF938C017B016A01DFDFCCECD1E052
:100F3000888188608883B801705FA601C701ADD63B
:100F40008881877F8883DF91CF911F910F91FF90D8
:100F5000EF90DF90CF900895C8DF8091CF0181FF9F
:100F600007C086E38093CA0161E08BEC91E0B7CFC4
:100F70000895CF93DF93C82FD62FB7DFACECB1E045
:100F80008C9188608C93EC2FF0E0F05FD0838C9193
:100F9000877F8C93DF91CF910895EF92FF920F930B
:100FA0001F93CF93DF93182FF92EE62EC0ECD1E0DC
:100FB0000A85D2DF9ADF6E2D812FDBDF1A82F9825C
:100FC000188385E38A8761E08BEC91E088DF0A87EC
:100FD000DF91CF911F910F91FF90EF9008950F93A4
:100FE0001F93CF938C0181DFC0E0F80161918F01E5
:100FF0008C2FBFDFCF5FC032C1F7CF911F910F9110
:101000000895CF93C82F71DF20E2C29FC001112441
:10101000E0ECF1E012829183808385E3CF916ACF87
:10102000CF92DF92EF92FF920F931F93CF93DF93B4
:10103000EC017B018A010115110529F1CE018F71A7
:101040009927892B99F40032110580F0C701C7DF79
:10105000CE0125E0969587952A95E1F7D2DFA096F7
:1010600080E2E80EF11C00521109E5CF6E01EFEFAE
:10107000CE1ADE0AF70161917F01CE018EDF0150A9
:101080001109E601D8CFDF91CF911F910F91FF9009
:10109000EF90DF90CF900895CF93DF93D82F5CDF50
:1010A00024DFC0E06D2F8C2F64DFCF5FC032D1F71B
:1010B000DF91CF91089519DF80E31CCF8FEFECDF34
:1010C000FACFCF92DF92EF92FF920F931F93CF93BD
:1010D000DF936B017C01EA01890107DF0C0F1D1F03
:1010E000C017D10751F0EBBEF601879189938FEFBE
:1010F000C81AD80AE80AF80AF3CFDF91CF911F91F6
:101100000F91FF90EF90DF90CF9008952F923F9234
:101110004F925F926F927F928F929F92AF92BF9207
:10112000CF92DF92EF92FF920F931F93CF93DF93B3
:1011300000D000D0CDB7DEB72B013C011A017901F8
:101140004B015C018824E89490F8E114F10409F45F
:1011500067C0CBDEC501B401C12CDD24D39410E0FF
:10116000002359F08BBFFB012791369129833A83E5
:101170002F3F3F4F31F011E004C0AFEFBFEFA98325
:10118000BA839B01AC012E5F3F4F4F4F5F4F2B83C4
:101190003C834D835E83E114F10439F19B01AC0182
:1011A0002F5F3F4F4F4F5F4F6415750586059705BD
:1011B00061F4A1E0EA1AF10829013A01D101ED91A7
:1011C0001D01E983E114F10481F02415350546057C
:1011D000570559F4B1E0EB1AF1084B805C806D8043
:1011E0007E80F10121911F012A8349815A816FD5A7
:1011F0006B817C818D819E81F1E0CF1AD10809F04D
:10120000AFCF112319F071DE45E202C06EDE44E279
:10121000C501B4014DD522E0920EA11CB11C95CFA1
:101220002696CDBFDEBFDF91CF911F910F91FF902A
:10123000EF90DF90CF90BF90AF909F908F907F9076
:101240006F905F904F903F902F9008954091CA010A
:10125000E62FF72F8093CA0184914093CA01089525
:101260000F93E8ECF4E080818F7D808380818F7D17
:101270008083E4EBF9E202E005931092B629109224
:10128000B72900E2069300E40693ECEAF9E200E4F1
:101290000693E0ECF9E21486158616861786128608
:1012A00013861092A7290F9108950F9385E08093DC
:1012B000A729E5EBF9E204E00593EDEAF9E204E0A1
:1012C00005930F9108950F9383E08093A7291092BF
:1012D000B6291092B729E4EBF9E202E006930F91E8
:1012E0000895E091CC29F091CD29309709F0199417
:1012F00008950F93CF93DF938091A729833029F42A
:10130000F0DFDF91CF910F91ABCF2091A3293091E6
:10131000A429C091CA29D091CB29C21BD30B61F556
:101320008091A5299091A629820F931F8093A529CA
:101330009093A6292091C6293091C7298217930737
:1013400021F080916229882331F084E08093A729DD
:10135000ECEAF9E236C0E091CE29F091CF2930973E
:1013600099F01995882381F01092A3291092A4294D
:10137000C091CA29D091CB29C034D10528F0109250
:101380006229C0E4D0E003C081E080936229C09369
:10139000B629D093B7298091A3299091A4292091AF
:1013A000C8293091C929280F391F2093B8293093B3
:1013B000B929C80FD91FC093A329D093A429E4EB5E
:1013C000F9E202E00693DF91CF910F9108950F9318
:1013D000CF938091CC0480FF65C021E02093CC04A2
:1013E0008CEA99E2FC0100E80693E4EBF9E200E8FC
:1013F00006932093CA04FC0100E106938091A7297B
:10140000882329F08350823008F46BDF29DF809134
:10141000AE299091AF29089709F046C088E0E3E62D
:10142000F9E2A0ECB9E201900D928A95E1F7809182
:10143000C80480628093C8048091C804806280934D
:10144000C80428DBC82F811102C02FDF2DC0809176
:10145000C02987FF0DC01092A5291092A6291092CD
:10146000A3291092A42982E08093A72942DF1DC0FE
:101470008091C6299091C729892B11F424DF15C0CA
:101480001092A5291092A6291092A3291092A4299E
:1014900081E08093A729ECEAF9E202E0069300E2FA
:1014A000069303C0C0E001C0C1E08C2FCF910F9123
:1014B0000895CF93DF931F92CDB7DEB78FB789839F
:1014C000F8949981EAECF4E080E4808380E2808300
:1014D000E1ECF4E0808181608083A9ECB4E08C9140
:1014E00082608C93E8ECF4E08081806480838C914E
:1014F00081608C938081806880839FBF0F90DF9193
:10150000CF9108951F93CF93DF931F92CDB7DEB78E
:101510001092600080E31E943A028091C0048064BF
:101520008093C00481E0809360008FB78983F89432
:1015300019811092AD291092B5296AE170E082E01C
:1015400085DE8F3F09F48FE18093FA046BE170E050
:1015500082E07CDE8F3F09F48FE18093FB04809171
:10156000C0048093C0048091C00480688093C0044C
:101570008091C00480618093C0048CEA99E28093DA
:10158000C6049093C7048091C00480628093C00415
:101590008FEF8093C5048091C80481608093C80454
:1015A00088DF1FBF0F90DF91CF911F910895809327
:1015B000C30408958091C3040895E0ECF9E28087A4
:1015C00091876287738708951F920F920FB60F92CB
:1015D00011240BB60F920F932F933F934F935F936A
:1015E0006F937F938F939F93AF93BF93CF93EF931B
:1015F000FF93C4E0C5BB8091CB0487FF05C080E8A2
:101600008093CA0422DA71C08091CB0482FF17C094
:10161000C093CA048091B42986FF67C08091CC042E
:1016200081FD63C0D4DE811160C08091A729813023
:1016300011F449DE5AC0843009F057C020C08091AF
:10164000CB0481FF25C082E08093CA048091AC293D
:1016500086FF4BC08091CC0481FD47C0B8DE81116C
:1016600044C08091A729823039F4C093A729ECEABD
:10167000F9E202E0069339C0833009F036C0E5EBA9
:10168000F9E204E00593EDEAF9E204E005932DC0E8
:101690008091CB0484FF1CC080E18093CA04B6D93A
:1016A0001092C3041092AD2996E09093AC2983E484
:1016B0008093AD291092B5299093B4298093B529D0
:1016C00083E699E28093B0299093B129C9DD0DC0DA
:1016D0008091CB0486FF02C080E405C08091CB04DA
:1016E00085FF03C080E28093CA04FF91EF91CF9100
:1016F000BF91AF919F918F917F916F915F914F912A
:101700003F912F910F910F900BBE0F900FBE0F9036
:101710001F9018951F920F920FB60F9211240BB6BF
:101720000F920F931F932F933F934F935F936F935A
:101730007F938F939F93AF93BF93CF93DF93EF9359
:10174000FF938091CC0481FF0AC082E08093CC0497
:101750008091C5048091AC2985FF7FC004C037DE2D
:10176000882399F37FC0ECEAF9E200E206938091C6
:10177000A729843019F4B5DD73DD74C00091AE295A
:101780001091AF298091CA299091CB29C091A329AA
:10179000D091A42998012C0F3D1F8217930718F4AC
:1017A0008C010C1B1D0B8091C8299091C929A8019F
:1017B00063E679E28C0F9D1F70D2C00FD11FC093DA
:1017C000A329D093A4290034110569F48091A52997
:1017D0009091A6298C0F9D1F2091C6293091C72971
:1017E0008217930788F0C093CA29D093CB29E09140
:1017F000CE29F091CF29309729F01995811102C097
:1018000054DD30C060DD2EC08091CA299091CB2973
:10181000C817D907D9F4E091CE29F091CF29309794
:1018200079F31995882361F32091A5293091A62990
:101830008091A3299091A429820F931F8093A529B9
:101840009093A6291092A3291092A429ECEAF9E218
:1018500002E0069300E2069305C0E4EBF9E200E241
:10186000069347DDFF91EF91DF91CF91BF91AF914B
:101870009F918F917F916F915F914F913F912F91A8
:101880001F910F910F900BBE0F900FBE0F901F90E6
:101890001895E89A90E39A95F1F78093A0098091C2
:1018A000A10986FFFCCF8091A10980648093A109E2
:1018B0001092A0098091A10986FFFCCF8091A10917
:1018C00080648093A10980E18A95F1F7E8980895F2
:1018D0008FEF8093A60980EC8093A50988E0809320
:1018E000A409ED9A8FE697E10197F1F700C0000097
:1018F000EA9880E2CEDFEA9A80E88093D02980934C
:10190000D129E0EDF9E242E050E06EEF640F72960B
:1019100042385105D1F0242F2695822F85759A01E2
:10192000220F331F2A7A282B822F86958695382FEF
:10193000337374E0279FC00111248C7C832B829524
:10194000608381834F5F5F4FE0CF1092D132089563
:10195000F89480E29EDFEA981092010980EF8A9560
:10196000F1F77894EA980895E89AE0E0F1E080A928
:10197000806480AB80E38A95F1F780E182AB82E0FE
:1019800099E084AB95AB80EA84AF89E085AF8CE6C3
:1019900083AB80ED99E280AF91AF81E181AB84E8C8
:1019A00080AB08951F920F920FB60F9211240BB6C1
:1019B0000F928F939F93EF93FF938FE79BEB01978A
:1019C000F1F700C00000E898E0E0F1E08381816079
:1019D0008383FF91EF919F918F910F900BBE0F909A
:1019E0000FBE0F901F9018959091D33221E0290FD0
:1019F0002093D3322FE7291B982F96959575880F42
:101A00008A7A982B892F86958695382F337344E0F0
:101A1000949FC00111248C7C832B8295E091D2325B
:101A2000F0E092E1299FE00DF11D1124E053F64D05
:101A30009281892B82830895CF92DF92EF92FF9259
:101A40000F931F93982F803269F415E080E0CCDF6C
:101A50001150E1F780E01F910F91FF90EF90DF9020
:101A6000CF90C2CF0CEF11E024E03327682F880F0E
:101A7000770B6053710985E0869FA001879F500D09
:101A80001124052E000C660B770B400F511F621FAF
:101A9000731F9A30F9F215E06A017B018FEFC81AC3
:101AA000D80AE80AF80A6BBFFA0187919DDF115046
:101AB000B701A60189F7CECFCF92DF92EF92FF92C6
:101AC0008093D3326093D23269017A018FEFC81AC2
:101AD000D80AE80AF80A4BBFF9018791882321F058
:101AE000ABDFA7019601F0CFFF90EF90DF90CF9092
:101AF00008958EE28093000687E080931406809319
:101B000016068093170693EC9093200691E090932D
:101B1000320680933306809334068093350680E83E
:101B200080932406109240068FE38093600690E233
:101B30009093640680938006109284061092A0060B
:101B40008FEF8093B00088E18093B00682E08093AD
:101B5000A90681E48093B20082E38093B300809170
:101B6000A80687FD04C08091A80686FF13C0E0E0A8
:101B7000F0E085919491019669F020917800809130
:101B8000D4329091D53225FF77C08A3A55E5950732
:101B900009F472C067E482EA90E0A1D91E94D801EA
:101BA00078948EE5809370008EEE8093740081E0CF
:101BB00080936E0680E88093000181E180930109A3
:101BC00086E0809300098BE197EB8093280990933E
:101BD00029097EDE20E133E044E0552760E08EE114
:101BE0006BDF2DEF32E044E0552765E08CE064DFE9
:101BF00022EF32E044E0552767E084E25DDF26EE25
:101C000032E044E0552769E08EE156DF2EED32E008
:101C100044E055276EE08AE24FDF29EC32E044E0F1
:101C200055276FE086E048DF9FDE80E285BB8AE0D3
:101C300090E040E39C01E8E2EA95F1F72F5F3F4F27
:101C4000223FF3E03F07B9F725B3242725BB0496CD
:101C50008A3E23E0920771F71E9405052ADC15BA27
:101C60008091A80684FDFBCF8091A80680FDF7CF68
:101C70006FDE1E949D02F3CF8A3A954539F480E2D7
:101C8000809378001092D4321092D5321CBEE0E0DE
:101C9000F0E0199580E090E00895FB01DC0102C0BE
:101CA00001900D9241505040D8F70895F894FFCF1D
:101CB0009BB78BBFFB018091CA014093CA017DE9AC
:101CC00070933400E8958093CA019BBF08952091DA
:101CD000CF0127FDFCCF9BB78BBFFB018091CA01D1
:101CE00023E22093CA010A01E89511248093CA01D6
:041CF0009BBF0895F9
:101CF400DB02AC020A03AD02000028201020000021
:101D040016201420002009021200010100C032092B
:101D140004000000FF000000120100020000004067
:101D2400EB03EC2F0001010200010003000000009E
:101D3400000000000000000000000000000000009F
:101D4400000000000000000000000000000000008F
:101D5400000000000000000000000000000000007F
:101D640000000000000000000000000000004F73AD
:101D740063696C6C6F73636F70652057617463681B
:101D84002044465520426F6F746C6F616465720025
:101D94004761626F74726F6E6963730004030904B0
:101DA400F220EA20D220D220E220DA20D220D2204F
:101DB400D220D220D220D220D220D220D220D2208F
:101DC400D2200000000000000000040000007302A4
:101DD4000000030000006F020000001000006B020E
:0A1DE4006A020000040064025902C4
:0400000340000000B9
:00000001FF
