S0180000476363426F61726450726F6A656374312E737265630F
S214040000FDC000001CC100001AC1000018C1000099
S21404001016C1000014C1000012C1000010C1000087
S2140400200EC100000CC100000AC1000008C1000097
S21404003006C1000004C1000002C1000000C10000A7
S214040040FEC00000FCC00000FAC00000F8C00000BB
S214040050F6C00000F4C00000F2C00000F0C00000CB
S214040060EEC00000ECC00000EAC00000E8C00000DB
S214040070E6C00000E4C00000E2C00000E0C00000EB
S214040080DEC00000DCC00000DAC00000D8C00000FB
S214040090D6C00000D4C00000D2C00000D0C000000B
S2140400A0CEC00000CCC00000CAC00000C8C000001B
S2140400B0C6C00000C4C00000C2C00000C0C000002B
S2140400C0BEC00000BCC00000BAC00000B8C000003B
S2140400D0B6C00000B4C00000B2C00000B0C000004B
S2140400E0AEC00000ACC00000AAC00000A8C000005B
S2140400F0A6C00000A4C00000A2C00000A0C000006B
S2140401009EC000009CC000009AC0000098C000007A
S21404011096C0000094C0000092C0000090C000008A
S2140401208EC000008CC000008AC0000088C000009A
S21404013086C0000084C0000082C0000080C00000AA
S2140401407EC000007CC000007AC0000078C00000BA
S21404015076C0000074C0000072C0000070C00000CA
S2140401606EC000006CC000006AC0000068C00000DA
S21404017066C0000064C0000062C0000060C00000EA
S2140401805EC000005CC000005AC0000058C00000FA
S21404019056C0000054C0000052C0000050C000000A
S2140401A04EC000004CC000004AC0000048C000001A
S2140401B046C0000044C0000042C0000040C000002A
S2140401C03EC000003CC000003AC0000038C000003A
S2140401D036C0000034C0000032C0000030C000004A
S2140401E02EC000002CC000002AC0000028C000005A
S2140401F026C000005FC700001C940C0911241FBE13
S214040200CFEFCDBFDFE5DEBF02E00CBF10E2A0E01B
S214040210B0E2E6EEFAE104E00BBF02C007900D92EE
S214040220AA39B107D9F729E2ACE9B0E201C01D92B8
S214040230A337B207E1F71E94DA0C1C94710DE0CED6
S2140402409BB78BBFFB018091CA014093CA017DE92D
S21404025070933400E8958093CA019BBF089520915B
S214040260CF0127FDFCCF9BB78BBFFB018091CA0152
S21404027023E22093CA010A01E89511248093CA0157
S2140402809BBF0895089580E008951092EE2882E0BA
S2140402908093F228109271291092722910926F2975
S2140402A010927029089583E08093EE2882E080936C
S2140402B0F22880E00895FC01208130E0322F2227C6
S2140402C08181280F311D2093A6203093A720828198
S2140402D090E0982F88274381FC01E40FF11DAF01BD
S2140402E060E070E080919C2090919D20A0919E20DB
S2140402F0B0919F20481759076A077B0740F088E0AB
S2140403008093EE288AE08093F22880E00895319660
S214040310E21BF30BE093A420F093A52081E008955C
S2140403208091A6204091A4205091A520682F6F7339
S21404033070E062557F4DE091A220F091A320909149
S214040340A7201995109271291092722981E00895B8
S2140403501092AA209ADF1E94EC091E94FB0980933F
S214040360A92081E008954091A4205091A520609191
S214040370A6207091A720E091A020F091A1208EEAFB
S21404038090E219956091A4207091A5208EEA90E2DF
S21404039088D681E008958091A6209091A720909316
S2140403A0AE208093AF2062E070E08EEA90E279D6C9
S2140403B081E0089580916329982F9076903209F011
S2140403C044C08823ACF480916429823049F0833099
S2140403D0A1F566E070E08EEE98E263D681E00895BB
S2140403E0E091AB20F091AC20309739F1199508953F
S2140403F080916429813029F08430F9F446DF81E065
S21404040008958091AA20882359F080E01E941F0A3C
S21404041080E19AE080936F299093702981E0089593
S21404042060E470E08EEA98E23CD687E292E080933D
S21404043071299093722981E008958FE08093EE28C5
S2140404408AE08093F22880E0089580E008950F9370
S2140404501F93CF931ADF1092AB201092AC2081E04A
S214040460EED78091AE2890E0982F88272091AF2869
S214040470822B811521E0920789F58091A920882393
S21404048061F08091A820882341F083E08093EE28D1
S21404049082E08093F228C0E020C18091A22090914F
S2140404A0A320892B41F483E08093EE288AE080938E
S2140404B0F228C0E012C180EB98E2FDDEC82F882344
S2140404C009F40BC160E078E08EEA90E2EAD580E9B0
S2140404D091E08093712990937229FFC0811523E0DF
S2140404E0920759F580EB98E2E6DEC82F882309F4D4
S2140404F0F4C02091A0203091A120232B41F483E066
S2140405008093EE288AE08093F228C0E0E6C08091CB
S214040510A920882359F08091A820882339F083E500
S21404052091E08093AB209093AC20D7C023EB31E0CE
S2140405302093AB203093AC20D0C0813023E09207C8
S21404054009F081C080EB98E2B6DEC82F882309F450
S214040550C4C02091A0203091A120232B41F483E035
S2140405608093EE288AE08093F228C0E0B6C02091FB
S214040570A4203091A52021153105B1F480E098EF30
S2140405808093A4209093A5206091A6207091A72024
S214040590E091A020F091A12040E058E08EEA90E29D
S2140405A019954FEF57E01FC08901213088E03807BE
S2140405B010F000E018E0201B310B2093A4203093A9
S2140405C0A5206091A6207091A720E091A020F0912C
S2140405D0A120A8018EEA90E219950115110551F1A2
S2140405E0A801415051098091AE208F3F91F007C079
S2140405F081918F3FB1F02093A6203093A72085E009
S2140406008093EE288BEC91E08093AB209093AC2003
S21404061064C02091A6203091A720EFEAF0E241556D
S2140406205F4D2F5F3F4FE417F50711F72093A62081
S2140406303093A7202091A4203091A52021153105C0
S21404064009F44BC0B1CF811524E0920741F4DAD601
S214040650C82F882309F441C01092A9203EC08330D5
S21404066024E0920729F481E08093AA20C1E035C0F3
S2140406708330964089F58091B02881112BC0E09193
S214040680B128E13140F088E08093EE288AE0809338
S214040690F228C0E022C08EEF8E0F843020F081E076
S2140406A08093A82002C01092A820F0E0EE0FFF1F4F
S2140406B0E05BFF4D0190F081E02D88E0ACE9B0E20C
S2140406C001900D928A95E1F71092A6201092A72029
S2140406D0C1E003C0C1E001C0C0E08C2FCF911F91E0
S2140406E00F9108959091F928992381F1E091F728C4
S2140406F0F091F8280190F081E02D9481891740F557
S214040700E093F528F093F628228133812E0F3F1FBD
S214040710E217F307F8F49181943061F49281981308
S21404072009C09381961306C0E093F528F093F62843
S21404073081E008959081E90FF11DE217F30758F35D
S214040740E093F528F093F62880E0089580E0089575
S21404075080E0089580E00895CF93DF93D82F60E07B
S214040760C1DFC82F8823A9F0A091F728B091F828F4
S214040770ED2FF0E0EE0FFF1F12962D913C9113978C
S214040780E20FF31F0190F081E02D0280F381E02D4B
S21404079019958C2FDF91CF910895CF93C82FA2DFA0
S2140407A08823A9F0A091F728B091F828EC2FF0E060
S2140407B0EE0FFF1F12968D919C911397E80FF91F69
S2140407C00190F081E02D0190F081E02D1995CF91F4
S2140407D00895809165298F775EC4089512C408959C
S2140407E0CF938091F9288823C1F0E091F728F091FF
S2140407F0F8280190F081E02D8481882371F0C0E010
S2140408008C2FAADFCF5FE091F728F091F8280190AB
S214040810F081E02D8481C81798F31092F92881E0BE
S21404082090E08093FA289093FB28CF910895CF9375
S2140408308091F928882341F1E091F728F091F8286F
S214040840A081B18114968C918823F1F0C0E08C2F9E
S21404085090E0880F991F0280F381E02DE80FF91FBE
S2140408600190F081E02D0084F185E02D309709F0A9
S2140408701995CF5FE091F728F091F828A081B1810F
S21404088014968C91C81718F3CF910895EF92FF929F
S2140408900F931F93CF93DF9382E085BB10926D294D
S2140408A010926E2910926F29109270291092712955
S2140408B0109272292091632922230CF045C280915C
S2140408C0692990916A29009709F043C239C22F71A9
S2140408D009F0BBC030916429363081F0383009F411
S2140408E0A9C03111B2C0029739F462E070E08AEF11
S2140408F098E2D7D301E0A7C100E0A5C120916529FD
S21404090030916629832F99278230910599F01CF43B
S214040910019739F085C083309105D9F10F9759F1C5
S2140409207FC08091202090912120DC016C9170E0A2
S214040930B8D365C0E0912020F09121208189281742
S21404094008F070C0C9019927880F991F880F991F4E
S214040950E0912220F0912320E80FF91F80819181F5
S214040960FC01628173819DD3E0916B29F0916C291F
S21404097082E0818344C080912420909125200097B2
S21404098009F452C0DC0112966D917C91139789D3B9
S21404099036C033272115310521F02130310539F0D1
S2140409A045C064E070E08CE190E27BD328C0E6E1C9
S2140409B0F0E2808190E080930C2090930D2081815A
S2140409C090E080930E2090930F20828190E0809395
S2140409D0102090931120838190E0809312209093AE
S2140409E01320848190E080931420909315208CE04B
S2140409F080930A206CE070E08AE090E252D3809103
S214040A00692990916A2920916D2930916E2982175F
S214040A10930770F480936D2990936E2901E013C1B7
S214040A2000E011C100E00FC100E00DC100E00BC101
S214040A3001E009C1019739F461E070E089EF98E2BA
S214040A4030D301E000C100E0FEC0213009F03AC115
S214040A50209164292A3009F0F1C0019799F5809114
S214040A60F928882389F1C0916729D0916829E090F4
S214040A70F728F090F828D701ED91FC918481C817E7
S214040A8028F560E08C2F2EDE082F882309F4DBC0BF
S214040A90CE019927880F991FD7011296ED91FC91E4
S214040AA01397E80FF91F0190F081E02D0680F78177
S214040AB0E02D19958093F42861E070E084EF98E2C5
S214040AC0F0D2C1C000E0BFC000E0BDC000E0BBC0C3
S214040AD02F7109F090C080916429833009F4B0C066
S214040AE018F48130B1F087C0853019F0893061F18F
S214040AF082C08091692990916A29892B41F489EEF4
S214040B0093E080936F299093702901E09CC000E0E5
S214040B109AC08091692990916A29892B89F48091D9
S214040B20652990916629019769F48091FA28909135
S214040B30FB288D7F8093FA289093FB2801E083C0DE
S214040B4000E081C000E07FC08091692990916A2905
S214040B50892B09F046C0A2D2882309F444C0209108
S214040B606529309166293327E0912020F0912120D1
S214040B70818990E082179307C0F132DE809165295F
S214040B80909166298093F928882389F199278150C2
S214040B90904C880F991F880F991FE0912220F0919E
S214040BA02320E80FF91FE093F728F093F828019024
S214040BB0F081E02D84818823E1F0C0E060E08C2F92
S214040BC0ECDD082F882309F43EC0CF5FE091F728B8
S214040BD0F091F8280190F081E02D8481C81770F315
S214040BE032C000E030C000E02EC000E02CC001E0BF
S214040BF02AC001E028C0213009F064C0809164292D
S214040C008B3001F58091692990916A29892B91F49A
S214040C108091F928882381F0C0916729D0916529AD
S214040C208C2F9ADD082F882371F06D2F8C2FB5DD5D
S214040C30082F09C000E007C000E005C000E003C0BC
S214040C4000E001C000E0011189C0809163298F7122
S214040C508130C1F58091F9288823A1F1C0916729D4
S214040C60D09168290091F7281091F828D801ED91C1
S214040C70FC918481C81730F560E08C2F33DD88231F
S214040C8009F1CE019927880F991FD8011296ED9184
S214040C90FC911397E80FF91F00811181D80116966D
S214040CA0ED91FC9117971995682F8C2F1BDD8823DF
S214040CB049F0D8011496ED91FC9115971995082FD3
S214040CC081114CC0809163298F718230D9F580914F
S214040CD0F928882389F1E091F728F091F828A08173
S214040CE0B18114968C91882349F110E0212F30E0CD
S214040CF0220F331F0280F381E02DE20FF31FC08121
S214040D00D181EE81FF811995682F812FEBDC082FA6
S214040D10882321F1EC81FD811995082F81111EC0CD
S214040D201F5FE091F728F091F828A081B18114960E
S214040D308C911817D8F212C000E010C000E00EC064
S214040D4000E00CC000E00AC0822F807609F07DCF58
S214040D50BFCE322F307609F078CFB9CD802FDF9111
S214040D60CF911F910F91FF90EF9008950F93E8ECA9
S214040D70F4E080818F7D808380818F7D8083E0E5B1
S214040D80F9E202E00593109252291092532900E2E8
S214040D90069300E40693E8E4F9E200E2069300E42E
S214040DA0069310926F29109270291092712910924E
S214040DB0722910926D2910926E29109241290F9172
S214040DC008950F9385E080934129E1E5F9E204E074
S214040DD00593E9E4F9E204E005930F9108950F936F
S214040DE083E0809341291092522910925329E0E51A
S214040DF0F9E202E006930F910895E0916F29F091CD
S214040E007029309709F0199508950F93CF93DF93BF
S214040E1080914129833019F4F0DFA8DF60C0809107
S214040E203D2990913E29C0916D29D0916E29C81B09
S214040E30D90B71F520913F2930914029820F931FD9
S214040E4080933F29909340292091692930916A29FB
S214040E508217930721F08091FC28882341F084E0D0
S214040E6080934129E8E4F9E202E0069338C0E09171
S214040E707129F0917229309799F01995882381F099
S214040E8010923D2910923E29C0916D29D0916E2969
S214040E90C034D10528F01092FC28C0E4D0E003C08A
S214040EA081E08093FC28C0935229D09353298091E3
S214040EB03D2990913E2920916B2930916C29280F69
S214040EC0391F2093542930935529C80FD91FC0932E
S214040ED03D29D0933E29E0E5F9E202E00693DF914E
S214040EE0CF910F9108950F93CF938091CC0480FFF8
S214040EF062C081E08093CC04E8E4F9E200E806935B
S214040F00E0E5F9E200E806938093CA04E8E4F9E22F
S214040F1000E1069380914129882329F0835082308A
S214040F2008F46BDF23DF80914A2990914B290897B8
S214040F3009F043C088E0EDEFF8E2A3E6B9E20190D9
S214040F400D928A95E1F7E8ECF4E080818062808374
S214040F508081806280839ADCC82F811103C031DFD0
S214040F60C1E02CC08091632988236CF410923F2939
S214040F701092402910923D2910923E2982E08093D7
S214040F80412943DF1BC02091692930916A29232B0C
S214040F9011F425DF13C010923F29109240291092B5
S214040FA03D2910923E2981E080934129E8E4F9E244
S214040FB002E0069303C0C0E001C0C1E08C2FCF91CD
S214040FC00F9108958FB7F894EAECF4E090E49083D8
S214040FD090E29083E1ECF4E0908191609083A9EC38
S214040FE0B4E09C9192609C93E8ECF4E09081906469
S214040FF090839C9191609C939081906890838FBF1E
S2140410000895CF93DF93C0E6D0E0188280E390D2B1
S214041010E0ECF4E080818064808381E08883CFB74D
S214041020F89410924929109251296AE170E082E0FE
S214041030B1D48F3F19F08093FA0403C08FE18093F4
S214041040FA046BE170E082E0A5D48F3F19F0809338
S214041050FB0403C08FE18093FB04E0ECF4E08081A2
S214041060808380818068808380818061808388E437
S21404107099E2868397838081806280838FEF809352
S214041080C504E8ECF4E08081816080839BDFCFBFF9
S214041090DF91CF9108958093C30408958091C3048B
S2140410A0089580936B2990936C2960936D297093AF
S2140410B06E2908951F920F920FB60F9211240BB645
S2140410C00F920F932F933F934F935F936F937F9358
S2140410D08F939F93AF93BF93EF93FF9384E085BB67
S2140410E08091CB0488232CF480E88093CA049FDB89
S2140410F07FC08091CB0482FF20C084E08093CA0422
S2140411008091502986FF74C08091CC0481FD70C004
S214041110EADE81116DC080914129813011F45FDED1
S21404112067C0843009F064C0E1E5F9E204E00593A1
S214041130E9E4F9E204E005935BC08091CB0481FF07
S21404114052C082E08093CA048091482986FF50C02A
S2140411508091CC0481FD4CC0C6DE811149C08091CB
S2140411604129823041F484E080934129E8E4F9E29D
S21404117002E006933DC0833009F03AC0E1E5F9E2A7
S21404118004E00593E9E4F9E204E0059331C080E164
S2140411908093CA0425DB1092C304E9E4F9E21082C2
S2140411A096E09093482983E48083E1E5F9E210828F
S2140411B09093502980838DEF98E280934C299093E6
S2140411C04D29D4DD15C08091CB0486FF04C080E48D
S2140411D08093CA040DC08091CB0485FF09C080E2C9
S2140411E08093CA0405C08091CB0484FFECCFCFCF94
S2140411F0FF91EF91BF91AF919F918F917F916F91E6
S2140412005F914F913F912F910F910F900BBE0F90CE
S2140412100FBE0F901F9018951F920F920FB60F9245
S21404122011240BB60F920F931F932F933F934F9354
S2140412305F936F937F938F939F93AF93BF93CF9355
S214041240DF93EF93FF938091CC0481FD03C04BDEC4
S21404125081118AC082E08093CC048091C504809179
S214041260482985FF7CC0E8E4F9E200E20693809111
S2140412704129843019F4C1DD79DD76C0C0914A294C
S214041280D0914B2980916D2990916E2900913D292A
S21404129010913E2998012C0F3D1F8217930718F4CE
S2140412A0EC01C01BD10B80916B2990916C29AE0187
S2140412B06DEF78E2800F911F0BD40C0F1D1F009367
S2140412C03D2910933E29C034D10569F480913F2905
S2140412D090914029800F911F2091692930916A29A5
S2140412E08217930788F000936D2910936E29E09176
S2140412F07129F0917229309729F01995811102C04D
S21404130060DD32C06CDD30C080916D2990916E290D
S21404131008171907F9F4E0917129F09172293097AA
S21404132011F44FDD21C01995811102C04ADD1CC09D
S21404133020913F293091402980913D2990913E2962
S214041340820F931F80933F299093402910923D2942
S21404135010923E29E8E4F9E202E0069305C0E0E5CF
S214041360F9E200E2069351DDFF91EF91DF91CF9110
S214041370BF91AF919F918F917F916F915F914F91A4
S2140413803F912F911F910F910F900BBE0F900FBEA0
S2140413900F901F9018950F93FB019A01BC0180E0F3
S2140413A090E001E0AF011BD20F910895FC019A0171
S2140413B080E090E0AF01FCC108958CC108959C01C3
S2140413C0CB01B901EBC00895645A764D81C30895E4
S2140413D0615A764D7DC30895E0E9F0E080818093FC
S2140413E05F2981818093602982818093612983812A
S2140413F08093622908958091D0018695817091E04A
S21404140089270895E0ECF1E087858823ECF340E231
S21404141060E070E0CB011E942001C6D181E00895FF
S214041420F8948AEA95E58093732990937429E8E7FB
S214041430F0E06181616089E790E0B6D2FFCF08955D
S214041440CF93DF9300D01F92CDB7DEB78FEF809394
S2140414507000809371008093720080937300809371
S2140414607400809375008093760064E081E490E0D5
S2140414709BD26CE170E082E08DD28A836DE170E0ED
S21404148082E088D2898389819A81019621F480E456
S21404149093E289839A8389819A818B839C83E0E68D
S2140414A0F0E082838C8183838FB7F894E0E5F0E0E4
S2140414B09081926090838FBF818181FFFDCF8FB72B
S2140414C0F894A0E5B0E016969C911697997F169628
S2140414D09C931697E0E6F0E090E895839BEB968362
S2140414E016969C911697946016969C93908191609C
S2140414F090838FBF61E080E490E056D28FB7F89473
S214041500E0E5F0E090819E7F90838FBF2496CDBF68
S214041510DEBFDF91CF9108959FB7F894E82FF0E0EF
S214041520E059FF4F60958081682360839FBF0895CC
S214041530863011F468E101C060E0E0E5F0E0818106
S21404154081FD24C08FB7F8949081926090838FBFFA
S214041550818181FFFDCF8FB7F894A0E5B0E01696A1
S2140415609C911697997F16969C931697E0E6F0E062
S21404157090E895839BEB968316969C9116979460B9
S21404158016969C939081916090838FBF636084E4E9
S21404159090E00AD260E480E0BFCF0895CF93DF9353
S2140415A09B01E0ECF1E067856623ECF3CCECD1E03C
S2140415B0688168606883BC01705FC90189D28881CC
S2140415C0877F8883DF91CF910895E0ECF1E08785EB
S2140415D08823ECF3E0ECF1E0878581FF06C086E320
S2140415E0828761E08BEC91E0DFC10895E0ECF1E0E6
S2140415F097859923ECF3ECECF1E090819860908366
S214041600A82FB0E0B05F6C938081877F80830895B5
S214041610FF920F931F93CF93DF93182FF92EC62FA5
S214041620E0ECF1E00285D1DFE0ECF1E0278522234F
S214041630ECF36C2F812FDADFC0ECD1E01A82F9824A
S214041640188385E38A8761E08BEC91E0ADD10A8745
S214041650DF91CF911F910F91FF900895EF92FF9223
S2140416600F931F93CF93DF938C01E0ECF1E0878513
S2140416708823ECF3780180E2E80EF11CE8018C2F55
S214041680801B6991B3DFCE15DF05C9F7DF91CF91D3
S2140416901F910F91FF90EF9008951F93CF93DF93C0
S2140416A0E0ECF1E097859923ECF320E2829FC001F9
S2140416B01124C0ECD1E01A82998388831A8585E3C5
S2140416C08A8761E08BEC91E06FD11A87DF91CF9126
S2140416D01F910895CF92DF92EF92FF920F931F937C
S2140416E0CF93DF93EC017B018A014115510551F13B
S2140416F0CE018F719927892BB1F40032110598F029
S214041700C701ACDFCE0196958795929582958F702A
S21404171089279F708927C1DFA09680E2E80EF11C16
S214041720005211090CC06E01EFEFCE1ADE0AF70163
S21404173061917F01CE016CDF01501109E6010115AC
S2140417401105B1F6DF91CF911F910F91FF90EF90A5
S214041750DF90CF900895CF93DF93D82F36DFE0EC59
S214041760F1E087858823ECF3C0E06D2F8C2F3EDFF5
S214041770CF5FC032D1F7DF91CF9108951F93CF93F7
S214041780DF93E0ECF1E087858823ECF3C0ECD1E04E
S2140417901A8580E38A8761E08BEC91E005D11A878D
S2140417A0DF91CF911F9108958FEFD5DFE7CF08958E
S2140417B0DA01E0ECF1E047854423ECF3211531052A
S2140417C069F02A0F3B1F8BBFFB0147914D936F5F58
S2140417D07F4F8F4F9F4FA217B307A9F708952F92F5
S2140417E03F924F925F926F927F928F929F92AF92A8
S2140417F0BF92CF92DF92EF92FF920F931F93CF93F5
S214041800DF93CDB7DEB72E97CDBFDEBF2B013C01ED
S2140418101A015901DC01CB0188279E7F8F839887A4
S214041820A987BA872115310509F49EC088248A94AD
S214041830982C4B865C866D867E868091CF018823A5
S214041840E4F38F819885A985BA859E5FAF4FBF4F15
S2140418508B839C83AD83BE83CF80D884E984FA844B
S21404186010E0260137017501AB84BC84CD84DE8488
S214041870002349F06BBEF2018791969189839A837F
S214041880019621F404C089829A8201C011E0E11411
S214041890F10469F1A414B504C604D70481F4B1E0D4
S2140418A0EB1AF108EFEFAE1ABE0ACE0ADE0AD10131
S2140418B08D911D018983E114F10459F418C0D301F4
S2140418C0C2010196A11DB11D8A159B05AC05BD0577
S2140418D071F4B1E0EB1AF10863015201E2E0AE0ED6
S2140418E0B11CC11CD11CD1018D911D018A83498173
S2140418F05A81C301B2011E942F01B2E04B0E511C53
S214041900611C711C8B819C81AD81BE814816590671
S2140419106A067B0609F0ACCFAB86BC86CD86DE862F
S2140419205701730162013501112361F06F817885D7
S21404193089859A852091CF012223E4F345E21E94FB
S21404194020010BC06F81788589859A852091CF0107
S2140419502223E4F344E21E942001672829F0CF8270
S214041960D886E986FA8669CF2E96CDBFDEBFDF918C
S214041970CF911F910F91FF90EF90DF90CF90BF9083
S214041980AF909F908F907F906F905F904F903F9016
S2140419902F9008954091CA01E62FF72F8093CA012D
S2140419A084914093CA0108951BBEFC0128ED24BF10
S2140419B060830895CF93DF93E0E0F6E08EE28083C1
S2140419C087E0848B868B878BE0E2F6E093EC90834B
S2140419D091E0928B838B848B858B80E88483E0E60E
S2140419E0F6E08FE3808390E2948380938006A0EBF6
S2140419F0B0E08FEF8C93E0EAF6E088E1808B82E03B
S214041A00818781E412968C93129782E313968C93C3
S214041A108085882394F4E0E0F0E085919491019623
S214041A2061F08091780085FF3CC080917329909185
S214041A3074298A3A954509F43BC067E482EA90E043
S214041A40B3DFFEDC789480E285BB2AE030E08AE0EF
S214041A5090E040E313C0E1E2EA95F1F70000019656
S214041A60823FF3E09F07B9F785B3842785BBC90196
S214041A7004968A3E23E0920731F09C01823F53E0AD
S214041A80950748F3F1CF1E94EE039CDAC0EAD6E03D
S214041A9015BA888584FDFCCF888584FDF9CFC0DC23
S214041AA0F7CF80917329909174298A3A954539F431
S214041AB080E28093780010927329109274291CBED9
S214041AC0E0E0F0E0199580E090E0DF91CF91089592
S214041AD0FB01DC0102C001900D9241505040D8F742
S20A041AE00895F894FFCF00
S214041AE6A8014201DA0143010000000300000000D9
S214041AF600000000000041544D454C000403090450
S214041B063E20262000002C202A200020090212004F
S214041B16010100C0320904000000FF0000001201A3
S214041B26000200000040EB03EC2F00000100000159
S214041B3692208A207220722082207A2072207220B6
S214041B4672207220722072207220722072207220F6
S214041B567220000000000000000004000000E809EF
S214041B66000003000000E409000000100000DF097E
S20E041B76DD0900000400D609CB09BF
S804040000F7
